:020000040000FA
:100000000C945D000C9485000C9485000C94850084
:100010000C9485000C9485000C9485000C9485004C
:100020000C9485000C9485000C9485000C9485003C
:100030000C9485000C9485000C9485000C9485002C
:100040000C94FB010C9485000C946B020C944502FB
:100050000C9485000C9485000C9485000C9485000C
:100060000C9485000C9485000000000024002700FB
:100070002A0000000000250028002B0004040404CE
:100080000404040402020202020203030303030342
:10009000010204081020408001020408102001021F
:1000A00004081020000000080002010000030407FB
:1000B00000000000000000006F0311241FBECFEFFE
:1000C000D8E0DEBFCDBF11E0A0E0B1E0E8E4F7E0AA
:1000D00002C005900D92A033B107D9F721E0A0E34B
:1000E000B1E001C01D92A93DB207E1F710E0CDE5F6
:1000F000D0E004C02197FE010E949C03CC35D107BB
:10010000C9F70E949D020C94A2030C940000E1EB3D
:10011000F0E02491EDE9F0E09491E9E8F0E0E49179
:10012000EE23C9F0222339F0233001F1A8F4213065
:1001300019F1223029F1F0E0EE0FFF1FEE58FF4FCA
:10014000A591B4912FB7F894EC91811126C09095A8
:100150009E239C932FBF08952730A9F02830C9F023
:10016000243049F7209180002F7D03C0209180002A
:100170002F7720938000DFCF24B52F7724BDDBCFEE
:1001800024B52F7DFBCF2091B0002F772093B000B6
:10019000D2CF2091B0002F7DF9CF9E2BDACFAF9236
:1001A000BF92CF92DF92EF92FF920F931F93CF9364
:1001B000DF936C017B018B01040F151FEB015E01C6
:1001C000AE18BF08C017D10759F06991D601ED915B
:1001D000FC910190F081E02DC6010995892B79F7FA
:1001E000C501DF91CF911F910F91FF90EF90DF90AC
:1001F000CF90BF90AF900895FC01538D448D252F73
:1002000030E0842F90E0821B930B541710F0CF96B0
:10021000089501970895FC01918D828D981761F0E2
:10022000A28DAE0FBF2FB11D5D968C91928D9F5FF9
:100230009F73928F90E008958FEF9FEF0895FC01D8
:10024000918D828D981731F0828DE80FF11D858D8B
:1002500090E008958FEF9FEF0895FC01918D228D1E
:10026000892F90E0805C9F4F821B91098F739927A3
:1002700008958CE391E00E942D0121E0892B09F47F
:1002800020E0822F089580E090E0892B29F00E94E1
:10029000390181110C9400000895FC01A48DA80F70
:1002A000B92FB11DA35ABF4F2C91848D90E00196B8
:1002B0008F739927848FA689B7892C93A089B189D8
:1002C0008C91837080648C93938D848D981306C079
:1002D0000288F389E02D80818F7D80830895EF92DD
:1002E000FF920F931F93CF93DF93EC0181E0888FF0
:1002F0009B8D8C8D98131AC0E889F989808185FFC0
:1003000015C09FB7F894EE89FF896083E889F98961
:1003100080818370806480839FBF81E090E0DF9163
:10032000CF911F910F91FF90EF900895F62E0B8DB6
:1003300010E00F5F1F4F0F731127E02E8C8D8E1171
:100340000CC00FB607FCFACFE889F989808185FFD8
:10035000F5CFCE010E944D01F1CFEB8DEC0FFD2FBB
:10036000F11DE35AFF4FF0829FB7F8940B8FEA8993
:10037000FB8980818062CFCFCF93DF93EC01888DA2
:100380008823B9F0AA89BB89E889F9898C9185FD10
:1003900003C0808186FD0DC00FB607FCF7CF8C919E
:1003A00085FFF2CF808185FFEDCFCE010E944D0108
:1003B000E9CFDF91CF91089542E050E062E171E032
:1003C0008CE391E00C94CF00CF93DF93FC0101907C
:1003D0000020E9F73197AF01481B590BBC018CE3B2
:1003E00091E00E94CF00EC010E94DC018C0F9D1F68
:1003F000DF91CF9108951F920F920FB60F921124A3
:100400002F933F938F939F93AF93BF938091380126
:1004100090913901A0913A01B0913B01309137019F
:1004200023E0230F2D3758F50196A11DB11D209310
:1004300037018093380190933901A0933A01B0932A
:100440003B018091330190913401A0913501B0912D
:1004500036010196A11DB11D8093330190933401A3
:10046000A0933501B0933601BF91AF919F918F91C9
:100470003F912F910F900FBE0F901F90189526E877
:10048000230F0296A11DB11DD2CF1F920F920FB65E
:100490000F9211242F933F934F935F936F937F930A
:1004A0008F939F93AF93BF93EF93FF938CE391E070
:1004B0000E944D01FF91EF91BF91AF919F918F915C
:1004C0007F916F915F914F913F912F910F900FBE50
:1004D0000F901F9018951F920F920FB60F92112434
:1004E0002F938F939F93EF93FF93E0914C01F091A3
:1004F0004D018081E0915201F091530182FD1BC0BA
:100500009081809155018F5F8F73209156018217E2
:1005100041F0E0915501F0E0E45CFE4F958F80934F
:100520005501FF91EF919F918F912F910F900FBEE9
:100530000F901F9018958081F4CF789484B58260D5
:1005400084BD84B5816084BD85B5826085BD85B577
:10055000816085BD80916E00816080936E001092F5
:100560008100809181008260809381008091810070
:100570008160809381008091800081608093800001
:100580008091B10084608093B1008091B00081605F
:100590008093B00080917A00846080937A0080918B
:1005A0007A00826080937A0080917A0081608093E3
:1005B0007A0080917A00806880937A001092C1005E
:1005C000E0914C01F0914D0182E08083E09148017F
:1005D000F09149011082E0914A01F0914B018FECBA
:1005E000808310925401E0915001F091510186E016
:1005F0008083E0914E01F0914F0180818061808382
:10060000E0914E01F0914F01808188608083E091FC
:100610004E01F0914F01808180688083E0914E010E
:10062000F0914F0180818F7D8083EDE9F0E024918E
:10063000E9E8F0E08491882399F090E0880F991F11
:10064000FC01E859FF4FA591B491FC01EE58FF4F12
:10065000859194918FB7F894EC91E22BEC938FBF36
:10066000C1E4D0E000E010E0D0933201C09331014A
:1006700080913101909132011816190634F58CE3FE
:1006800091E00E940B0180933001813439F481E0C4
:100690000E94870085E191E00E94E4018091300191
:1006A0008D3439F480E00E94870082E291E00E945C
:1006B000E40160913001605E609330018CE391E071
:1006C0000E946F010E94DC01D3CF0115110561F278
:1006D0000E943901882341F20E940000C5CFECE35B
:1006E000F1E01382128288EE93E0A0E0B0E0848310
:1006F0009583A683B78384E091E09183808385EC22
:1007000090E09587848784EC90E09787868780ECDB
:1007100090E0918B808B81EC90E0938B828B82ECCC
:1007200090E0958B848B86EC90E0978B868B118E76
:10073000128E138E148E0895EE0FFF1F0590F49104
:10074000E02D0994F894FFCF000000006F01CF0066
:10075000FC00BC012D010B011F010D0A004C616D55
:10076000706520416C756D6572004C616D7065201F
:08077000457465696E746500B3
:107E0000112484B714BE81FFF0D085E080938100F7
:107E100082E08093C00088E18093C10086E0809377
:107E2000C20080E18093C4008EE0C9D0259A86E02C
:107E300020E33CEF91E0309385002093840096BBD3
:107E4000B09BFECF1D9AA8958150A9F7CC24DD24C4
:107E500088248394B5E0AB2EA1E19A2EF3E0BF2EE7
:107E6000A2D0813461F49FD0082FAFD0023811F036
:107E7000013811F484E001C083E08DD089C08234E0
:107E800011F484E103C0853419F485E0A6D080C0E4
:107E9000853579F488D0E82EFF2485D0082F10E0AE
:107EA000102F00270E291F29000F111F8ED06801E7
:107EB0006FC0863521F484E090D080E0DECF843638
:107EC00009F040C070D06FD0082F6DD080E0C81688
:107ED00080E7D80618F4F601B7BEE895C0E0D1E017
:107EE00062D089930C17E1F7F0E0CF16F0E7DF06D8
:107EF00018F0F601B7BEE89568D007B600FCFDCFD4
:107F0000A601A0E0B1E02C9130E011968C91119780
:107F100090E0982F8827822B932B1296FA010C0160
:107F200087BEE89511244E5F5F4FF1E0A038BF0790
:107F300051F7F601A7BEE89507B600FCFDCF97BE46
:107F4000E89526C08437B1F42ED02DD0F82E2BD052
:107F50003CD0F601EF2C8F010F5F1F4F84911BD097
:107F6000EA94F801C1F70894C11CD11CFA94CF0C13
:107F7000D11C0EC0853739F428D08EE10CD085E9AC
:107F80000AD08FE07ACF813511F488E018D01DD067
:107F900080E101D065CF982F8091C00085FFFCCF94
:107FA0009093C60008958091C00087FFFCCF809118
:107FB000C00084FD01C0A8958091C6000895E0E648
:107FC000F0E098E1908380830895EDDF803219F02E
:107FD00088E0F5DFFFCF84E1DECF1F93182FE3DFCA
:107FE0001150E9F7F2DF1F91089580E0E8DFEE27F6
:047FF000FF270994CA
:027FFE00040479
:00000001FF
